:030000000209A052
:0C09A000787FE4F6D8FD7581320209E78B
:100B7F0020202020323031372031322033310020F5
:100B8F002020202031323A31323A3132003F065B99
:100B9F004F666D7D077F6F777C395E79710076794F
:020BAF00383FCD
:100B3D0001250001170001103A02290000021800DA
:100B4D0000020C000002220000020E00000227002D
:100B5D0000020A0003021500010208000102110043
:100B6D0002021E0002021A0000021C0001022000F7
:010B7D000770
:0C0BD700120BF6EC2430FF120C097F0515
:0D0BE300EFD3940040077E6EDEFE1F80F30E
:010BF00022E2
:050BF100120BF67F0F5E
:100BF6008F80C2A67F01120BE3D2A77F01120BE3FF
:030C0600C2A72260
:100C0900D2A68F807F01120BE3D2A77F01120BE3DB
:030C1900C2A7224D
:100A8E00C2A7C2A57F38120BF67F0E120BF67F0699
:100A9E00120BF67F01120BF67F80120BF6E4F52493
:100AAE00E524900B7F93120BDD0524E524C3940EF1
:100ABE0040EE7FC0120BF6E4F526E526900B8E93E2
:100ACE00120BDD0526E526C3940D40EE75890175E2
:0C0ADE008C3C758AB0D2AFD2A9D28C2219
:10091200E5256414600302099FF525052AE52A707E
:10092200020529640A4529700CF529F52A0519E5FD
:100932001970020518E51964064518700CF518F5CA
:1009420019050DE50D7002050CE50D640A450C70E4
:100952000CF50CF50D0523E52370020522E5236451
:10096200064522700CF522F523050FE50F700205EE
:100972000EE50F640A450E700CF50EF50F0528E51D
:100982002870020527E528640245277010E50F64E8
:0E09920004450E7008F527F528F50EF50F2226
:10000E00AE1AAF1B7C007D64120875AA06AB07AE54
:10001E001EAF1F7C037DE8120875EF2BFBEE3AFA3C
:10002E00AE1CAF1D7C007D0A120875EF2BFFEE3A59
:10003E00FEE5212FF514E5203EF513E52845276052
:10004E00030204AEE50F450E60030204AEE5234540
:10005E002260030204AEE50D450C60030204AEE51A
:10006E0019451860030204AEE52A4529600302040F
:10007E00AEE5284527701EE50F450E7018E52345A1
:10008E00227012E50D450C700CE51945187006E549
:10009E002A452960DCAE13AF147C007D041208875C
:1000AE00ED4C700EAE13AF14FC7D64120887ED4C50
:1000BE007012AE13AF147C017D90120887ED4C6068
:1000CE00030202BFE50945086003020211E512644E
:1000DE000145116020E512640345116018E51264B4
:1000EE000545116010E512640745116008E51264BC
:1000FE0008451170490516E51670020515C3E50B86
:10010E009403E50A648094805014E516640A45153C
:10011E00700CF515F516050BE50B7002050AE50BCF
:10012E006403450A60030201FBE51664024515608F
:10013E00030201FB0512E512705D05118059E512EF
:10014E00640445116010E512640645116008E5125D
:10015E0064094511704D0516E51670020515C3E5C7
:10016E000B9403E50A648094805014E516640A45E6
:10017E0015700CF515F516050BE50B7002050AE565
:10018E000B6403450A7066E516640A4515705E0534
:10019E0012E51270020511E4F50AF50BF515751648
:1001AE0001804A0516E51670020515E50B64034538
:1001BE000A7019E516640A45157011F50AF50BF566
:1001CE00157516010512E51270020511C3E50B94A3
:1001DE0002E50A648094805014E516640A45157091
:1001EE000CF515F516050BE50B7002050AE5126404
:1001FE000A451160030204AE0509E50970020508FF
:10020E000203FBE51245116008E512640245117008
:10021E004A0516E51670020515C3E50B9403E50AAB
:10022E00648094805014E516640A4515700CF5151B
:10023E00F516050BE50B7002050AE50B6403450A7E
:10024E007019E516640245157011F515751601F550
:10025E000AF50B0512E51270020511E5126401454F
:10026E001160030204AE0516E51670020515C3E50E
:10027E000B9403E50A648094805015E516640A45D4
:10028E0015700DF515751601050BE50B7002050AB7
:10029E00E50B6403450A60030204AEE516640A45E5
:1002AE001560030204AE0512E51270020511020478
:1002BE00A4E50945086003020403E5126401451133
:1002CE006020E512640345116018E51264054511BE
:1002DE006010E512640745116008E51264084511C7
:1002EE0070490516E51670020515C3E50B9403E576
:1002FE000A648094805014E516640A4515700CF556
:10030E0015F516050BE50B7002050AE50B640345A2
:10031E000A60030203E8E516640245156003020352
:10032E00E80512E512705D05118059E51264044569
:10033E00116010E512640645116008E51264094566
:10034E0011704D0516E51670020515C3E50B9403E5
:10035E00E50A648094805014E516640A4515700C05
:10036E00F515F516050BE50B7002050AE50B640392
:10037E00450A7066E516640A4515705E0512E512AB
:10038E0070020511E4F50AF50BF515751601804A94
:10039E000516E51670020515E50B6402450A70197F
:1003AE00E516640945157011F50AF50BF515751668
:1003BE00010512E51270020511C3E50B9402E50A60
:1003CE00648094805014E516640A4515700CF5157A
:1003DE00F516050BE50B7002050AE512640A4511C8
:1003EE0060030204AE0509E50970020508E4F51183
:1003FE00F5120204AEE51245116008E512640245DD
:10040E0011704A0516E51670020515C3E50B940327
:10041E00E50A648094805014E516640A4515700C44
:10042E00F515F516050BE50B7002050AE50B6403D1
:10043E00450A7019E516640245157011F515751605
:10044E0001F50AF50B0512E51270020511E51264AD
:10045E00014511704B0516E51670020515C3E50B27
:10046E009403E50A648094805014E516640A4515D9
:10047E00700CF515F516050BE50B7002050AE50B6C
:10048E006403450A701AE516640A451570120512C2
:10049E00E51270020511E4F50AF50BF51575160156
:1004AE00E509640145087019E512640345117011E0
:1004BE00F508F509F5117512010514E5147002051C
:1004CE0013AE13AF147C037DE81208878E1E8F1FA8
:1004DE00AE13AF147C037DE81208877E007F64CFD5
:1004EE00CDCFCECCCE1208878E1A8F1BAE13AF1483
:1004FE007C007D641208877E007F0ACFCDCFCECCE4
:10050E00CE1208878E1C8F1DAE13AF147C007D0A91
:08051E001208878C208D2122B8
:0F0A2C00AF28AD0FAB23850D2E85192F852A30EE
:100A3B00AC077FC5120BD77FC6120BF6ED120BDB83
:100A4B007FC7120BF6AF10120BDE7FC8120BF6EB43
:100A5B00120BDB7FC9120BF6E52E120BDB7FCA12D2
:100A6B000BF6AF10120BDE7FCB120BF6E52F120B32
:100A7B00DB7FCC120BF6E5302430FF120C097F051F
:030A8B00020BE378
:100AEA00AC077F83120BD77F84120BF6ED120BDB58
:100AFA007F85120BF6EB120BDB7F86120BF6E52EC7
:100B0A00120BDB7F88120BF6E52F120BDB7F8912A3
:100B1A000BF6E530120BDB7F8B120BF6E531120B6D
:100B2A00DB7F8C120BF6E5322430FF120C097F05AD
:030B3A00020BE3C8
:100526002090147F05120BE3209009C28C05177FDB
:100536000C120BF63090FDE517B40705E4F517D25B
:100546008CE5176401707B3090787FCC120BF1201C
:1005560091257F05120BE320911A052AE52A7002E0
:100566000529640A45297004F529F52A120A2C7F03
:100576000C120BF63091FD20922B7F05120BE32017
:100586009220E52A152A70021529E52AB4FF0BE503
:1005960029B4FF06752900752A09120A2C7F0C1248
:1005A6000BF63092FD20939F7F05120BE320930AF2
:1005B6007F0C120BF6D28CE4F51730930302087405
:1005C60080F8E5176402707B3090787FCB120BF1D0
:1005D6002091257F05120BE320911A0519E5197064
:1005E600020518640645187004F518F519120A2C48
:1005F6007F0C120BF63091FD20922B7F05120BE338
:10060600209220E519151970021518E519B4FF0B8B
:10061600E518B4FF06751800751905120A2C7F0C2B
:10062600120BF63092FD20939F7F05120BE3209369
:100636000A7F0C120BF6D28CE4F5173093030208EE
:100646007480F8E5176403707B3090787FC9120BCD
:10065600F12091257F05120BE320911A050DE50D7A
:100666007002050C640A450C7004F50CF50D120AAF
:100676002C7F0C120BF63091FD20922B7F05120B6E
:10068600E3209220E50D150D7002150CE50DB4FF63
:100696000BE50CB4FF06750C00750D09120A2C7FCC
:1006A6000C120BF63092FD20939F7F05120BE32070
:1006B600930A7F0C120BF6D28CE4F51730930302E3
:1006C600087480F8E5176404707B3090787FC81250
:1006D6000BF12091257F05120BE320911A0523E5E6
:1006E6002370020522640645227004F522F52312C2
:1006F6000A2C7F0C120BF63091FD20922B7F0512EF
:100706000BE3209220E523152370021522E523B47E
:10071600FF0BE522B4FF06752200752305120A2C8D
:100726007F0C120BF63092FD20939F7F05120BE390
:1007360020930A7F0C120BF6D28CE4F51730930344
:1007460002087480F8E517640560030207F8209034
:10075600030207F87FC6120BF12091397F05120BB1
:10076600E320912E050FE50F7002050EE5286402C1
:100776004527700AE50F6404450E700E8008E50FE4
:10078600640A450E7004F50EF50F120A2C7F0C1242
:100796000BF63091FD20923A7F05120BE320922F43
:1007A600E50F150F7002150EE50FB4FF1AE50EB42E
:1007B600FF15E528640245277007F50E750F0380BF
:1007C60006750E00750F09120A2C7F0C120BF630F7
:1007D60092FD3093030207547F05120BE320930A20
:1007E6007F0C120BF6D28CE4F517309303020874D3
:1007F60080F8E517640670763090737FC5120BF1AA
:100806002091257F05120BE320911A0528E5287013
:10081600020527640345277004F527F528120A2CDC
:100826007F0C120BF63091FD20922B7F05120BE305
:10083600209220E528152870021527E528B4FF0B1D
:10084600E527B4FF06752700752802120A2C7F0CCF
:10085600120BF63092FD20939F7F05120BE3209337
:0F0866000A7F0C120BF6D28CE4F5173093FD22AB
:100BB100120A8E12000E120A2CAF1FAD1BAB1D853F
:100BC100212E85092F851230850B31851632120AA7
:060BD100EA12052680DD9A
:03000B00020C1CC8
:100C1C00C0E0758C3C758AB00525120912D0E03203
:1009AC00020BB1E493A3F8E493A34003F68001F2A5
:1009BC0008DFF48029E493A3F85407240CC8C3334C
:1009CC00C4540F4420C8834004F456800146F6DF1B
:1009DC00E4800B0102040810204080900B3DE47E63
:1009EC00019360BCA3FF543F30E509541FFEE49310
:1009FC00A360010ECF54C025E060A840B8E493A3D7
:100A0C00FAE493A3F8E493A3C8C582C8CAC583CA01
:100A1C00F0A3C8C582C8CAC583CADFE9DEE780BEB9
:010B7E000076
:10087500EF8DF0A4A8F0CF8CF0A428CE8DF0A42E97
:02088500FE2251
:10088700C2D5EC30E709B2D5E4C39DFDE49CFCEE8C
:1008970030E715B2D5E4C39FFFE49EFE1208BDC33F
:1008A700E49DFDE49CFC80031208BD30D507C3E43A
:0608B7009FFFE49EFE22FB
:1008BD00BC000BBE0029EF8DF084FFADF022E4CC1F
:1008CD00F875F008EF2FFFEE33FEEC33FCEE9DECE8
:1008DD00984005FCEE9DFE0FD5F0E9E4CEFD22ED2E
:1008ED00F8F5F0EE8420D21CFEADF075F008EF2F78
:1008FD00FFED33FD4007985006D5F0F222C398FD69
:05090D000FD5F0EA2205
:00000001FF
