:030000000200BE3D
:0C00BE00787FE4F6D8FD7581070200038E
:1000AE003F065B4F666D7D077F6F777C395E79719A
:10000300D2A69000AFE493F580C2A67580FFD2A775
:100013007580FE12008AD2A69000B0E493F580C2E8
:10002300A67580FFD2A77580FD12008AD2A6900024
:10003300B1E493F580C2A67580FFD2A77580FB1249
:10004300008AD2A69000B2E493F580C2A67580FF21
:10005300D2A77580F712008AD2A69000B3E493F575
:1000630080C2A67580FFD2A77580EF12008AD2A640
:100073009000B4E493F580C2A67580FFD2A7758083
:07008300DF12008A020003F6
:06008A00C2A77FF47E0115
:10009000D3EF9400EE940040147D6E7C00ED1D7053
:0D00A000011CED4C70F7EF1F70E61E80E3B1
:0100AD002230
:00000001FF
