:03000000020136C4
:0C013600787FE4F6D8FD75810B02017D96
:1001F7003F065B4F666D7D077F6F777C395E797150
:0802070002080096020A000241
:10000300D2A77580FEC2A7D2A6758006C2A612012A
:10001300C91201C2D2A77580FDC2A7D2A675805BA3
:10002300C2A61201C91201C2D2A77580FBC2A7D210
:10003300A675804FC2A61201C91201C2D2A775804C
:10004300F7C2A7D2A6758066C2A61201C91201C261
:10005300D2A77580EFC2A7D2A675806DC2A6120182
:10006300C91201C2D2A77580DFC2A7D2A675807D4F
:10007300C2A61201C91201C2D2A77580DFC2A7D2DC
:10008300A6758007C2A61201C91201C2D2A7758044
:10009300EFC2A7D2A675807FC2A61201C91201C200
:1000A300D2A77580F7C2A7D2A675806FC2A6120128
:1000B300C91201C2D2A77580FBC2A7D2A6758077E9
:1000C300C2A61201C91201C2D2A77580FDC2A7D26E
:1000D300A675807CC2A61201C91201C2D2A775807F
:1000E300FEC2A7D2A6758039C2A61201C91201C2E7
:1000F300D2A77580FDC2A7D2A675805EC2A61201E3
:10010300C91201C2D2A77580FBC2A7D2A675807B94
:10011300C2A61201C91201C2D2A77580F7C2A7D223
:10012300A6758071C2A61201C9D2A77580FFC2A7A6
:030133000201C9FD
:0701C200D2A77580FFC2A760
:1001C900E50B150BAE0A7002150AD39400EE9400E4
:1001D900400FE5091509AE08700215084E60E18067
:0E01E900F1750800750996750A00750B022263
:10014200020003E493A3F8E493A34003F68001F2D0
:1001520008DFF48029E493A3F85407240CC8C333BE
:10016200C4540F4420C8834004F456800146F6DF8D
:10017200E4800B0102040810204080900207E47E14
:10018200019360BCA3FF543F30E509541FFEE49382
:10019200A360010ECF54C025E060A840B8E493A349
:1001A200FAE493A3F8E493A3C8C582C8CAC583CA74
:1001B200F0A3C8C582C8CAC583CADFE9DEE780BE2C
:01020F0000EE
:00000001FF
