:030000000200F10A
:0C00F100787FE4F6D8FD7581070200FD61
:0500FD0012000380FB6E
:1000C800E4F5807F32FE1200D87580FF7F327E0013
:1000D800D3EF9400EE9400400F7D267C82DCFEDD99
:0800E800FAEF1F70EB1E80E827
:0100F00022ED
:100003007580011200D47580021200D47580041229
:1000130000D47580081200D47580101200D4758046
:10002300401200D47580801200D47580811200D4F0
:100033007580821200D47580841200D47580881272
:1000430000D47580901200D47580C01200D47580DE
:10005300C11200D47580C21200D47580C41200D4BA
:100063007580C81200D47580D01200D47580D11267
:1000730000D47580D21200D47580D41200D4758058
:10008300D81200D47580F91200D47580FA1200D406
:100093007580FC1200D47580FD1200D47580FE12A9
:1000A30000D47580FF7F647E001200D81200C8124E
:1000B30000C8E4F5807F32FE1200D87580FF7F32DE
:0500C3007E000200D8E0
:00000001FF
