:0300000002016C8E
:0C016C00787FE4F6D8FD758113020130A5
:100146003F065B4F666D7D077F6F777C395E797101
:05015600007679383F3E
:04010E007F057E00EB
:10011200D3EF9400EE940040147D6E7C00ED1D70D0
:0D012200011CED4C70F7EF1F70E61E80E32E
:01012F0022AD
:10013000E4F580D2A6C2A6D2A77580C0C2A7751367
:060140001112015B80FBBF
:1000030075B0FE85B00D530DF0E50D64F06033124D
:10001300010E85B00D530DF0E50D64F06024E50D80
:100023002490601B24C0601224E0600924F0701245
:10003300751301800D751302800875130380037512
:10004300130475B0FD85B00D530DF0E50D64F0603C
:100053003312010E85B00D530DF0E50D64F06024ED
:10006300E50D2490601B24C0601224E0600924F095
:100073007012751305800D751306800875130780BC
:100083000375130875B0FB85B00D530DF0E50D64D2
:10009300F0603312010E85B00D530DF0E50D64F0E1
:1000A3006024E50D2490601B24C0601224E06009E5
:1000B30024F07012751309800D75130A80087513E7
:1000C3000B800375130C75B0F785B00D530DF0E578
:1000D3000D64F0603312010E85B00D530DF0E50D84
:1000E30064F06024E50D2490601B24C0601224E0BA
:1000F300600924F0701275130D800D75130E8008BE
:0B01030075130F8003751310AF13225B
:10015B001200038F08D2A6EF90014593F580C2A63B
:01016B002271
:00000001FF
