:0300000002000EED
:0C000E00787FE4F6D8FD758119020055DA
:1000DE00080801020408102040800810FEFDFBF7FE
:0400EE00EFDFBF7F02
:1000F300758901758C3C758AB0D2AFD2A9D28CE4D4
:04010300F51880FE6D
:03000B0002009A56
:10009A00C0E0C0D075D000C000758C3C758AB00530
:1000AA0019E51920E00A74102518F8E6F59080037E
:1000BA007590FFE519B4141575190074102518F810
:1000CA00E6F5900518E518B40803751800D000D0B5
:0400DA00D0D0E03270
:10001A000200F3E493A3F8E493A34003F68001F209
:10002A0008DFF48029E493A3F85407240CC8C333E7
:10003A00C4540F4420C8834004F456800146F6DFB6
:10004A00E4800B01020408102040809000DEE47E68
:10005A00019360BCA3FF543F30E509541FFEE493AB
:10006A00A360010ECF54C025E060A840B8E493A372
:10007A00FAE493A3F8E493A3C8C582C8CAC583CA9D
:10008A00F0A3C8C582C8CAC583CADFE9DEE780BE55
:0100F200000D
:00000001FF
