:030000000200C338
:0C00C300787FE4F6D8FD75810E02010A7A
:0801BA00020900C8020B00025B
:10017D00750D00750E087508FEE50E150EAE0D70A9
:10018D0002150D4E60051201A680EE750D00750E5F
:07019D00087590FF1200033A
:0201A40080D702
:10014F00E50C150CAE0B7002150BD39400EE94005A
:10015F00400FE50A150AAE09700215094E60E180DD
:0E016F00F1750900750AC8750B00750C0222A7
:1001A60085089012014FAF087801EF08800123D827
:0401B600FDF5082229
:10000300C29012014FD29012014FC290C2911201BD
:100013004FD290D29112014FC290C291C29212015B
:100023004FD290D291D29212014FC290C291C292FA
:10003300C29312014FD290D291D292D29312014F16
:10004300C290C291C292C293C29412014FD290D273
:1000530091D292D293D29412014FC290C291C29282
:10006300C293C294C29512014FD290D291D292D22E
:1000730093D294D29512014FC290C291C292C2936D
:10008300C294C295C29612014FD290D291D292D20B
:1000930093D294D295D29612014FC290C291C2923A
:1000A300C293C294C295C296C29712014FD290D204
:1000B30091D292D293D294D295D296D29702014FF3
:1000CF0002017DE493A3F8E493A34003F68001F2C9
:1000DF0008DFF48029E493A3F85407240CC8C33332
:1000EF00C4540F4420C8834004F456800146F6DF01
:1000FF00E4800B01020408102040809001BAE47ED6
:10010F00019360BCA3FF543F30E509541FFEE493F5
:10011F00A360010ECF54C025E060A840B8E493A3BC
:10012F00FAE493A3F8E493A3C8C582C8CAC583CAE7
:10013F00F0A3C8C582C8CAC583CADFE9DEE780BE9F
:0101C200003C
:00000001FF
