:1002C5003F065B4F666D7D077F6F777C395E797181
:0502D5007679383F00BE
:03000300010F00EA
:03000B00020245A9
:10024500C0E0C0D075D000C000C007758C3C758A71
:10025500B00508E50864057028F508E50A6401603D
:1002650011AF0C7801EF08800123D8FDF50CF5904E
:10027500800F6390FF050FE50FB41E05759000C252
:0A0285008CD007D000D0D0D0E032BA
:03001B0002001EC2
:10001E00C0E0C0F0C0D075D000C000C004C005C0A4
:10002E0006C007758D3C758BB00509E50964027035
:10003E005AF509E511151170021510AE10AF117CAD
:10004E00007D641201F08F0BAE10AF117C007D6449
:10005E001201F07E007F0ACFCDCFCECCCE1201F0B2
:10006E008F0DAE10AF117C007D0A1201F08D0EE5E2
:10007E0011B48E17E510B40112C28C758C3C758AC2
:10008E00B0D28C7590FF750A01C28ED007D006D003
:0C009E0005D004D000D0D0D0F0D0E0326B
:0602DA00D2A7C2A77F01BC
:0D02E000EFD3940040077E6EDEFE1F80F31A
:0102ED0022EE
:10019600750CFE7510017511B0AE10AF117C007DA7
:1001A600641201F08F0BAE10AF117C007D6412015A
:1001B600F07E007F0ACFCDCFCECCCE1201F08F0DD0
:1001C600AE10AF117C007D0A1201F08D0E850C90E9
:1001D600758D3C758BB0758C3C758AB0D2AF7589C0
:0A01E60011D2A9D2ABD28ED28C2226
:10013600EF9002C593F580D2A6C2A67580FE120284
:10014600DAED93F580D2A6C2A67580FD1202DAEB2F
:1001560093F580D2A6C2A67580FB1202DAE5159346
:10016600F580D2A6C2A67580F71202DAE51693F5D7
:1001760080D2A6C2A67580EF1202DAE51793F58043
:10018600D2A6C2A67580DFD2A7C2A77F010202E06F
:10028F00120196D3E511948EE51094014014850B5D
:10029F0015850D16850E177B057D067F0712013616
:1002AF0080E17515127516137517147B127D117F6A
:0602BF001012013680CD93
:030000000200AA51
:0C00AA00787FE4F6D8FD7581170200F1A4
:1001F000BC000BBE0029EF8DF084FFADF022E4CCF3
:10020000F875F008EF2FFFEE33FEEC33FCEE9DECBB
:10021000984005FCEE9DFE0FD5F0E9E4CEFD22ED01
:10022000F8F5F0EE8420D21CFEADF075F008EF2F4B
:10023000FFED33FD4007985006D5F0F222C398FD3C
:050240000FD5F0EA22D9
:1000B60002028FE493A3F8E493A34003F68001F2CF
:1000C60008DFF48029E493A3F85407240CC8C3334B
:1000D600C4540F4420C8834004F456800146F6DF1A
:1000E600E4800B0102040810204080900003E47EA7
:1000F600019360BCA3FF543F30E509541FFEE4930F
:10010600A360010ECF54C025E060A840B8E493A3D5
:10011600FAE493A3F8E493A3C8C582C8CAC583CA00
:10012600F0A3C8C582C8CAC583CADFE9DEE780BEB8
:0100060000F9
:00000001FF
