:03000000020257A2
:0C025700787FE4F6D8FD75811102021DCD
:100247003F065B4F666D7D077F6F777C395E7971FF
:06023300D2A7C2A77F0163
:0D023900EFD3940040077E6EDEFE1F80F3C1
:010246002295
:0C019E0085B00A530AF0AB0EAD0BAF09A0
:1001AA00AC07EB90024793F580D2A6C2A67580EF02
:1001BA00120233ED93F580D2A6C2A67580FB120215
:1001CA0033EC93F580D2A6C2A67580FED2A7C2A749
:0501DA007F0102023963
:1000030075B0FE85B00A530AF0E50A64F060497FD3
:100013000512023985B00A530AF0E50A64F060E973
:10002300E50A2490601B24C0601224E0600924F0D8
:100033007012750D01800D750D028008750D03801A
:1000430003750D04E50A64F060D085B00AE5B05489
:10005300F0F50A1201A480EC75B0FD85B00A530ACD
:10006300F0E50A64F060407F0512023985B00A5357
:100073000AF0E50A64F060E9E50A2490601B24C0F5
:10008300601224E0600924F07012750D05800D756F
:100093000D068008750D078003750D08E50A64F0E9
:1000A30060D012019E80F575B0FB85B00A530AF04B
:1000B300E50A64F060407F0512023985B00A530AED
:1000C300F0E50A64F060E9E50A2490601B24C0604F
:1000D3001224E0600924F07012750D09800D750D6E
:1000E3000A8008750D0B8003750D0CE50A64F0603A
:1000F300D012019E80F575B0F785B00A530AF0E57A
:100103000A64F060407F0512023985B00A530AF091
:10011300E50A64F060E9E50A2490601B24C06012DC
:1001230024E0600924F07012750D0D800D750D0E1D
:100133008008750D0F8003750D10E50A64F060D01B
:0601430012019E80F5226E
:1001DF00E50DF5F0A485F00FF510AE0FFF7C007D57
:1001EF00641201498F09AE0FAF107C007D641201BC
:1001FF00497E007F0ACFCDCFCECCCE1201498F0BD7
:0E020F00AE0FAF107C007D0A1201498D0E2249
:10021D00D2A6E4F580C2A6D2A7C2A712000312018E
:06022D00DF1201A480F5C0
:10014900BC000BBE0029EF8DF084FFADF022E4CC9A
:10015900F875F008EF2FFFEE33FEEC33FCEE9DEC63
:10016900984005FCEE9DFE0FD5F0E9E4CEFD22EDA9
:10017900F8F5F0EE8420D21CFEADF075F008EF2FF3
:10018900FFED33FD4007985006D5F0F222C398FDE4
:050199000FD5F0EA2281
:00000001FF
