:030000000200FA01
:0C00FA00787FE4F6D8FD758108020058FC
:1000D8003F065B4F666D7D077F6F777C395E797170
:0400E8007679383FAE
:0D00EC00EFD3940040077E6EDEFE1F80F310
:0100F90022E4
:10009800EF9000D893F580D2A6C2A67580EFD2A7BC
:1000A800C2A77F011200ECED93F580D2A6C2A67517
:0B00B80080DFD2A7C2A77F010200EC8E
:1000C300AF8CAD8AAE8CEFB506F6EFFE7C00E42D67
:0400D300FFEC3EFE02
:0100D7002206
:10005800758905E4F58CF58AD28C1200C3AB07AA22
:1000680006C3EB9464EA94004007E4FAFBF58CF5C8
:100078008A7C007D0AAF03AE021200038F087C0061
:100088007D0AAF03AE02120003AF0812009880CABF
:10000300BC000BBE0029EF8DF084FFADF022E4CCE1
:10001300F875F008EF2FFFEE33FEEC33FCEE9DECAA
:10002300984005FCEE9DFE0FD5F0E9E4CEFD22EDF0
:10003300F8F5F0EE8420D21CFEADF075F008EF2F3A
:10004300FFED33FD4007985006D5F0F222C398FD2B
:050053000FD5F0EA22C8
:00000001FF
