:030000000200CA31
:0C00CA00787FE4F6D8FD7581200201115A
:1001C100039F250D9949411F0119194615444340C3
:0401D1000D0E000F00
:05021400010A00C10019
:1001D500AD071FED600BE4FEEEC3940D50F20E80EB
:0101E500F722
:0101E60022F6
:0701A7001201E77FF07E006A
:1001AE007D0A7C3200DCFDDDF9EF1F70011E144E5E
:0201BE0070EEE1
:0101C000221C
:0E0003007F307E75EF1FAC0670011E4C70F64C
:0100110022CC
:0901E700C280C281C282C28322DF
:0901F000D280C281D282C28322B6
:0901F900C280D281C282D28322AD
:09020200C280D281D282C28322A3
:09020B00D280C281C282D283229A
:100156001201E7EF24FE601514601A14601D146086
:10016600202404701F1201A7C2A00201F01201A7E9
:10017600D2A00201F91201A702020B1201A7020284
:05018600021201E72256
:03001300020016D2
:0B001600C0E0C083C082C0D075D000E5
:10002100E4FCC2AA7F0F1201D530B305D2AA0200A7
:10003100C120B3077F011201D580F6751200751337
:100041000030B3077F011201D580F620B3077F018D
:100051001201D580F630B3107F011201D50CECC32B
:10006100941E40F1D2AA8058740B2512F8C000E604
:10007100FFC313D000F6ECC394084009740B25129A
:10008100F8E64480F67C000513E513C3940840B1FB
:100091000512E512C3940440A5E50EF4650D600454
:1000A100D2AA801C751200E5129001CB93B50D0503
:1000B100AF121201560512E512C3940A40E9D2AA01
:0900C100D0D0D082D083D0E0320F
:10018B00C20175080B7509B8D2AAD28AD2AF9001F9
:0C019B00C1E493F5A0120003B29480F9B7
:1000D60002018BE493A3F8E493A34003F68001F2B4
:1000E60008DFF48029E493A3F85407240CC8C3332B
:1000F600C4540F4420C8834004F456800146F6DFFA
:10010600E4800B0102040810204080900214E47E73
:10011600019360BCA3FF543F30E509541FFEE493EE
:10012600A360010ECF54C025E060A840B8E493A3B5
:10013600FAE493A3F8E493A3C8C582C8CAC583CAE0
:10014600F0A3C8C582C8CAC583CADFE9DEE780BE98
:0102190000E4
:00000001FF
