:0300000002000EED
:0C000E00787FE4F6D8FD75810F0200C673
:100107003F065B4F666D7D077F6F777C395E797140
:1000C600C290758911758C4C758AD0758D4C758B5F
:1000D600D0D2AFD2A9D2ABD28CD28EAB0CAD0BAFF5
:0600E6000A12006380F520
:100063008F0E8D0FD2A77580FEC2A7D2A6EB12000A
:100073009CD2A77580FDC2A7D2A6E50F12009CD221
:10008300A77580FBC2A7D2A6E50E90010793F58062
:09009300C2A67F057E000200A850
:0C009C0090010793F580C2A67F057E004E
:1000A800D3EF9400EE940040147D6E7C00ED1D703B
:0D00B800011CED4C70F7EF1F70E61E80E399
:0100C5002218
:03000B000200EC04
:1000EC00C0E0C0D0758C4C758AD00508E508B40A00
:0B00FC0005750800B290D0D0D0E032B3
:03001B0002001EC2
:10001E00C0E0C0F0C0D0758D4C758BD00509E509D8
:10002E00B4052B750900050DE50DB49803750D008B
:10003E00E50D75F06484F50AE50D75F00A8475F02A
:10004E000A8485F00BE50D75F00A8485F00CD0D08E
:05005E00D0F0D0E032FB
:00000001FF
