:03000000020128D2
:0C012800787FE4F6D8FD75810A020134EE
:0501340012000380FB36
:10010F00D3EF9400EE9400400F7D267C82DCFEDD61
:08011F00FAEF1F70EB1E80E8EF
:0101270022B5
:1000CC00E4F5807F32FE12010F1200E27580FF7F93
:0600DC00327E0012010F4C
:1000E200D2B3E4F509E4F50A050AE50AB4C8F9054C
:1000F20009E509B405EFC2B3E4F509E4F50A050A16
:0D010200E50AB4C8F90509E509B405EF22C6
:100003007580011200DB7580021200DB758004121B
:1000130000DB7580081200DB7580101200DB758031
:10002300401200DB7580801200DB7580811200DBDB
:100033007580821200DB7580841200DB7580881264
:1000430000DB7580901200DB7580C01200DB7580C9
:10005300C11200DB7580C21200DB7580C41200DBA5
:100063007580C81200DB7580D01200DB7580D11259
:1000730000DB7580D21200DB7580D41200DB758043
:10008300D81200DB7580F91200DB7580FA1200DBF1
:100093007580FC1200DB7580FD1200DB7580FE129B
:1000A30000DB7580FF7F641200DD1200CC1200CCF0
:1000B300E4F5807F32FE12010F1200E27580FF7FAC
:0900C300327E0012010F0200E27E
:00000001FF
