:0300000002000EED
:0C000E00787FE4F6D8FD758110020055E3
:1000FF003F065B4F666D7D077F6F777C395E797149
:08010F000608FEFDFBF7EFDF1F
:1000EE00758901758C3C758AB0D2AFD2A9D28C803D
:0100FE00FE03
:03000B0002009A56
:10009A00C0E0C083C082C0D075D000C000758C3C5F
:1000AA00758AB0050FE50F640A702EF50FD2A77492
:1000BA0008250EF8E6F580050EE50EB40603750E62
:1000CA0000C2A7D2A6E5109000FF93F5800510E5BF
:1000DA0010B41003751000C2A6D000D0D0D082D0C0
:0400EA0083D0E032AD
:10001A000200EEE493A3F8E493A34003F68001F20E
:10002A0008DFF48029E493A3F85407240CC8C333E7
:10003A00C4540F4420C8834004F456800146F6DFB6
:10004A00E4800B010204081020408090010FE47E36
:10005A00019360BCA3FF543F30E509541FFEE493AB
:10006A00A360010ECF54C025E060A840B8E493A372
:10007A00FAE493A3F8E493A3C8C582C8CAC583CA9D
:10008A00F0A3C8C582C8CAC583CADFE9DEE780BE55
:0101170000E7
:00000001FF
