:030000000200A457
:0C00A400787FE4F6D8FD75810A020003A5
:100094003F065B4F666D7D077F6F777C395E7971B4
:06008000D2A7C2A77F0118
:0D008600EFD3940040077E6EDEFE1F80F376
:01009300224A
:10004B00AC07EB90009493F580D2A6C2A67580EF17
:10005B00120080ED93F580D2A6C2A67580FB12002C
:10006B0080EC93F580D2A6C2A67580FED2A7C2A75C
:05007B007F0102008678
:10000300D2A775807FC2A7D2B600C2B600D2B6000F
:100013007A14AB0AAD09AF0812004BDAF57590FFFD
:10002300D2B700C2B700AF90D2B7EF75F06484F5D2
:1000330008EF75F06484E5F075F00A84F509EF754F
:08004300F00A8485F00A80BF79
:00000001FF
