:0300000002000EED
:0C000E00787FE4F6D8FD75810C020055E7
:0B014F0002080096020A0002010C00EA
:10009A00758901758C3C758AB0D2AFD2A9D28CE52C
:1000AA000C6403703EF50CD2A77580FEC2A7D2A6D7
:1000BA00758006C2A61200F51200EED2A77580FD61
:1000CA00C2A7D2A675805BC2A61200F51200EED2B4
:1000DA00A77580FBC2A7D2A675804FC2A61200F5EB
:0400EA001200EE22F0
:0700EE00D2A77580FFC2A735
:1000F500E50B150BAE0A7002150AD39400EE9400B9
:10010500400FE5091509AE08700215084E60E1803B
:0E011500F1750800750996750A00750B022237
:03000B00020123CC
:10012300C0E0C0D075D000C006758C3C758AB005A0
:100133000CD2A77580F7C2A7D2A6758071C2A6128A
:0C01430000F51200EED006D0D0D0E03263
:10001A0002009AE493A3F8E493A34003F68001F262
:10002A0008DFF48029E493A3F85407240CC8C333E7
:10003A00C4540F4420C8834004F456800146F6DFB6
:10004A00E4800B010204081020408090014FE47EF6
:10005A00019360BCA3FF543F30E509541FFEE493AB
:10006A00A360010ECF54C025E060A840B8E493A372
:10007A00FAE493A3F8E493A3C8C582C8CAC583CA9D
:10008A00F0A3C8C582C8CAC583CADFE9DEE780BE55
:01015A0000A4
:00000001FF
